:100000000C9434000C94DC030C9446000C944600D1
:100010000C9446000C9446000C944C040C949F04E1
:100020000C9446000C9446000C9446000C94460038
:100030000C9446000C9446000C9456040C94460014
:100040000C9446000C9446000C9446000C94460018
:100050000C9446000C9446000C9446000C94460008
:100060000C9446000C94460011241FBECFEFD8E03C
:10007000DEBFCDBF21E0A0E0B1E001C01D92A03104
:10008000B207E1F70E9462050C9460070C9400002F
:10009000CF92DF92EF92FF920F931F93CF93DF9354
:1000A000182F062F823031F461E081E00E942D028A
:1000B000EC0103C00E942D02EC01002399F08EE6B2
:1000C00092E0E4E2F3E029EB31E00F2EF4E0CF2EF2
:1000D000F1E0DF2EF02D0F2EF6E0EF2EF1E0FF2EF7
:1000E000F02D12C08BE892E0E4EEF1E021E333E082
:1000F0000F2EF0E0CF2EF1E0DF2EF02D0F2EF2E0EC
:10010000EF2EF1E0FF2EF02DC817D90788F5CE01AC
:10011000821B930B9C0122F422273327281B390BC7
:1001200044E6429FC001439F900D1124BE010E94EE
:1001300038076F30710528F4F701D183C08381E05F
:100140006CC061E081E00E94D1036FE070E080E06C
:1001500090E00E94300461E080E00E94D103602FB3
:10016000802F0E942D02F701D183C08381E055C00A
:100170008C179D0708F04CC0CE018E1B9F0B9C0175
:1001800022F422273327281B390B44E6429FC00163
:10019000439F900D1124BE010E9438076F307105F6
:1001A00028F4F601D183C08380E037C0CE17DF0783
:1001B00029F0F601D183C08380E02FC061E081E0A7
:1001C0000E94D1036FE070E080E090E00E94300474
:1001D00061E080E00E94D103602F802F0E942D02F9
:1001E000BC01C817D907B1F09C012C1B3D0B44E69C
:1001F000429FC001439F900D11240E943807633035
:10020000710550F0602F812F0E944800812F05C09A
:10021000812F03C080E001C080E0DF91CF911F916A
:100220000F91FF90EF90DF90CF900895CF92DF92E3
:10023000EF92FF920F931F93CF93DF93C82FD62F88
:100240008091060190910701892B91F08091040122
:1002500090910501892B61F0809102019091030139
:10026000892B31F08091000190910101892B29F4B3
:100270006D2F8C2F0E944800C2C08C2F0E942D022F
:100280008C01D13009F04AC080910601909107019C
:100290009801281B390BC90122F422273327281B78
:1002A000390B44E6429FC001439F900D1124B801D1
:1002B0000E943807FB01809104019091050198018B
:1002C000281B390BC90122F422273327281B390B9D
:1002D00044E6429FC001439F900D1124B8010E9443
:1002E00038076F31710548F4E932F10530F01093A9
:1002F00007010093060181E082C03F9748F469320C
:10030000710530F0109305010093040180E077C07F
:1003100061E08C2F0E9448008C2F71C0D1116EC0FB
:1003200080910001909101019801281B390BC901AE
:1003300022F422273327281B390B44E6429FC001B1
:10034000439F900D1124B8010E9438076B018091E2
:100350000201909103019801281B390BC90122F475
:1003600022273327281B390B44E6429FC001439FB5
:10037000900D1124B8010E9438077B016F3171057F
:1003800098F4B60180E090E00E9414062DEC3CEC5D
:100390004CEC5EE30E94C606181634F41093030179
:1003A0000093020181E02BC0B60180E090E00E9442
:1003B00014062AE939E949E15EE30E94E005882351
:1003C000BCF4B70180E090E00E941406D1E02DEC6F
:1003D0003CEC4CEC5EE30E94C60618160CF0D0E034
:1003E000DD2331F0109301010093000180E007C08C
:1003F00060E08C2F0E9448008C2F01C08C2FDF9171
:10040000CF911F910F91FF90EF90DF90CF900895C3
:10041000CF93DF93EC0160E080E00E942D02BC01ED
:100420008C179D07B0F48C1B9D0B9C0122F4222796
:100430003327281B390B44E6429FC001439F900D90
:1004400011240E94380781E06630710518F480E0BD
:1004500001C080E0DF91CF9108950F931F93CF9358
:10046000C62F06C061E070E080E090E00E9430049A
:100470000E94A2034597B0F76C2F81E00E94D10340
:1004800064E070E080E090E00E9430040E94A203EB
:100490008C016C2F80E00E94D103C801CF911F9185
:1004A0000F9108954F925F926F927F928F929F92D9
:1004B000AF92BF92CF92DF92EF92FF920F93CF93C2
:1004C000DF936A017B01D22F682F70E088EE93E002
:1004D0000E944C0770E080E090E00E9414062B011F
:1004E0003C01A70196010E94CB060E94E505862EDD
:1004F000A701960160E070E080E89FE30E94730529
:10050000A30192010E94CB060E94E5050023D9F0C9
:10051000C0E0912CA12CB12CC62ED12CE12CF12CB9
:100520006D2F81E00E94D103C501B4010E94300407
:100530006D2F80E00E94D103C701B6010E943004F4
:10054000CF5F0C13EDCFDF91CF910F91FF90EF9024
:10055000DF90CF90BF90AF909F908F907F906F90E3
:100560005F904F9008953F924F925F926F927F926B
:100570008F929F92AF92BF92CF92DF92EF92FF92B3
:100580000F931F93CF93DF9395E0992493940F2EAD
:10059000FDECBF2EF02D0F2EFCECCF2EF02D0F2EEC
:1005A000FCECDF2EF02D1DE3C82FD0E00F2EF4E67B
:1005B0008F2EF02D512C412C312C0F2EFFE37F2E4E
:1005C000F02D0F2EF3E06F2EF02D55C0092D21E0F8
:1005D0004B2D5C2D6D2D712F84E10E9452022DEC6C
:1005E0003CEC4CE45EE36B2D7C2D8D2D912F0E9415
:1005F0007405B62EC72ED82E192F61E080E00E9418
:100600002D029E01281B3109C901181619061CF577
:10061000332324F422273327281B390B829EC00161
:10062000839E900D1124BE010E944C07633071051A
:1006300094F02DEC3CEC4CE45EE36B2D7C2D8D2D89
:10064000912F0E947305AB01BC01092D21E084E1CB
:100650000E94520215C0A3948A2D90E08E159F052A
:100660000CF4B4CF9394B52CC42CD32C172D962D09
:1006700034E0931629F0E92E990FFF08A12CA6CF9C
:10068000DF91CF911F910F91FF90EF90DF90CF906E
:10069000BF90AF909F908F907F906F905F904F90A2
:1006A0003F9008950F9301E020E04DEC5CEC6CEC82
:1006B0007DE384E10E94520220E04AE959E969E9B8
:1006C0007EE384E10E94520220E040E050E060E0DE
:1006D0007FE384E10E94520220E043E353E363E3BB
:1006E0007FE384E10E94520220E046E656E666E699
:1006F0007FE384E10E9452020F9108950F9302E07C
:1007000020E040E050E060E07FE384E10E9452029C
:1007100020E043E353E363E37FE384E10E9452027A
:1007200020E046E656E666E67FE384E10E94520258
:100730000F9108953898409AECE7F0E08081807F2F
:1007400080830895EAE7F0E080818068808380817B
:1007500080648083808180917800209179009081ED
:100760009F77908390E0922B0895209A219A089584
:1007700052985A9A0895239A0895E9E6F0E0808104
:1007800081608083808182608083E89A08958DB340
:1007900081708DBB0895882311F02B9A08952B98B2
:1007A0000895811103C0299828980895611102C005
:1007B000289A0895299A08951F920F920FB60F92C2
:1007C00011248F9381E0809308018F910F900FBEC9
:1007D0000F901F90189582E084BD83E085BD8DE762
:1007E00087BD089582E08093B00084E08093B100DB
:1007F0008AEF8093B3000895E0E7F0E080818460A1
:10080000808310920E0110920D011092B200089593
:10081000EEE6F0E080818D7F808360E080E00E94E2
:10082000D1030895E0E7F0E080818B7F8083089515
:10083000E0E6F0E08081886180838081866080834B
:100840008081877F80830895E0E6F0E08081806486
:1008500080830895E0E6F0E080818F7B80830895B7
:10086000AB01BC0116BC80E090E0DC010CC0A99992
:1008700006C084179507A607B707C8F30895019621
:10088000A11DB11DA99A481759076A077B0719F0DE
:10089000A99BEDCFF4CF08951F920F920FB60F9240
:1008A00011240F900FBE0F901F9018951F920F925A
:1008B0000FB60F9211242F933F934F935F936F9333
:1008C0007F938F939F93AF93BF93EF93FF93809109
:1008D0000C018F5F80930C0180910B01882369F0DC
:1008E00080910C01853049F460E080E00E94D103E2
:1008F00010920C0110920B0111C080910B0181111B
:100900000DC080910C018D3249F460E081E00E94BD
:10091000D10310920C0181E080930B01FF91EF91C4
:10092000BF91AF919F918F917F916F915F914F9107
:100930003F912F910F900FBE0F901F9018951F920F
:100940000F920FB60F9211242F938F939F93809144
:100950000D0190910E01019690930E0180930D016F
:1009600080910F018F5F80930F0180910D01909115
:100970000E01843F914041F495B180E1892785B90A
:1009800010920E0110920D0180910F019F918F9195
:100990002F910F900FBE0F901F901895CF93DF935C
:1009A00080910A018130A9F030F0823009F1833062
:1009B00009F456C082C062E082E00E9416018111F3
:1009C00004C082E080930A017AC083E080930A0128
:1009D00076C00E94520360E080E00E9416018111FF
:1009E00004C082E080930A016AC00E947E0367C04F
:1009F00078940E94FC031092090160E080E00E945C
:100A00002D02EC0160E080E00E941601813049F483
:100A100083E080930A01109209010E940804F8946F
:100A20004EC0CE010E940802882389F060E081E078
:100A30000E94D10365E070E080E090E00E94300405
:100A400060E080E00E94D1030E94B302DBCF80917E
:100A500009018823B9F20E94B3020E941204D2CF86
:100A600081E00E94CB030E94BD0361E081E00E940F
:100A70001601811104C082E080930A0119C080919F
:100A80000801882331F01092080181E080930A0167
:100A90000FC00E94240483B7846083BF83B7816042
:100AA00083BF7894889583B78E7F83BFF894DDCF1A
:100AB0000E942A040E94C70302C010920A01DF911B
:100AC000CF9108950E94B5030E94B8030E94BB0312
:100AD0000E949A030E94EB030E94F2030E941804F2
:100AE0000E94CE04FDCF5058BB27AA270E948B0539
:100AF0000C948C060E947E0638F00E94850620F039
:100B000039F49F3F19F426F40C947B060EF4E0951B
:100B1000E7FB0C947506E92F0E949D0658F3BA175F
:100B2000620773078407950720F079F4A6F50C9403
:100B3000BF060EF4E0950B2EBA2FA02D0B01B901C4
:100B400090010C01CA01A0011124FF27591B99F043
:100B5000593F50F4503E68F11A16F040A22F232F4F
:100B6000342F4427585FF3CF469537952795A7959F
:100B7000F0405395C9F77EF41F16BA0B620B730B46
:100B8000840BBAF09150A1F0FF0FBB1F661F771FB7
:100B9000881FC2F70EC0BA0F621F731F841F48F46C
:100BA000879577956795B795F7959E3F08F0B0CFF5
:100BB0009395880F08F09927EE0F979587950895DC
:100BC0000E94510608F481E008950E94A50688F06D
:100BD0009F5798F0B92F9927B751B0F0E1F0660F01
:100BE000771F881F991F1AF0BA95C9F714C0B13042
:100BF00091F00E94BF06B1E008950C94BF06672FE4
:100C0000782F8827B85F39F0B93FCCF38695779570
:100C10006795B395D9F73EF4909580957095619559
:100C20007F4F8F4F9F4F0895E89409C097FB3EF484
:100C300090958095709561957F4F8F4F9F4F992329
:100C4000A9F0F92F96E9BB279395F69587957795A7
:100C50006795B795F111F8CFFAF4BB0F11F460FF67
:100C60001BC06F5F7F4F8F4F9F4F16C0882311F0BF
:100C700096E911C0772321F09EE8872F762F05C0D3
:100C8000662371F096E8862F70E060E02AF09A956E
:100C9000660F771F881FDAF7880F9695879597F963
:100CA0000895990F0008550FAA0BE0E8FEEF1616FD
:100CB0001706E807F907C0F012161306E407F50750
:100CC00098F0621B730B840B950B39F40A2661F0C4
:100CD000232B242B252B21F408950A2609F4A14067
:100CE000A6958FEF811D811D089597F99F6780E874
:100CF00070E060E008959FEF80EC089500240A946E
:100D00001616170618060906089500240A941216E6
:100D10001306140605060895092E0394000C11F419
:100D2000882352F0BB0F40F4BF2B11F460FF04C0C6
:100D30006F5F7F4F8F4F9F4F089557FD9058440F1F
:100D4000551F59F05F3F71F04795880F97FB991F2A
:100D500061F09F3F79F087950895121613061406E7
:100D6000551FF2CF4695F1DF08C016161706180674
:100D7000991FF1CF86957105610508940895E8944F
:100D8000BB2766277727CB0197F908950E94510664
:100D900008F48FEF08950E94DE060C948C060E94E2
:100DA0007E0638F00E94850620F0952311F00C9401
:100DB00075060C947B0611240C94C0060E949D06B7
:100DC00070F3959FC1F3950F50E0551F629FF0019E
:100DD000729FBB27F00DB11D639FAA27F00DB11DB7
:100DE000AA1F649F6627B00DA11D661F829F222740
:100DF000B00DA11D621F739FB00DA11D621F839FC7
:100E0000A00D611D221F749F3327A00D611D231F9C
:100E1000849F600D211D822F762F6A2F11249F57EA
:100E200050409AF0F1F088234AF0EE0FFF1FBB1FED
:100E3000661F771F881F91505040A9F79E3F5105AC
:100E400080F00C9475060C94C0065F3FE4F3983E66
:100E5000D4F3869577956795B795F795E7959F5F56
:100E6000C1F7FE2B880F911D9695879597F90895E8
:100E7000AA1BBB1B51E107C0AA1FBB1FA617B707C0
:100E800010F0A61BB70B881F991F5A95A9F78095DC
:100E90009095BC01CD01089597FB072E16F40094A0
:100EA00007D077FD09D00E94380707FC05D03EF433
:100EB000909581959F4F0895709561957F4F089506
:040EC000F894FFCFD4
:00000001FF
