S01D000046726964676520446F6F72204D656368616E69736D2E737265634D
S11300000C9434000C94EA030C9446000C944600BF
S11300100C9446000C9446000C945E040C949304D7
S11300200C9446000C9446000C9446000C94460034
S11300300C9446000C9446000C9468040C944600FE
S11300400C9446000C9446000C9446000C94460014
S11300500C9446000C9446000C9446000C94460004
S11300600C9446000C94460011241FBECFEFD8E038
S1130070DEBFCDBF21E0A0E0B1E001C01D92A03100
S1130080B207E1F70E9458050C9456070C9400003F
S11300900F931F93CF93DF93C82FD62F823031F461
S11300A061E081E00E944C028C0103C00E944C027A
S11300B08C01D13009F055C0043F81E0180758F590
S11300C084E6809F9001819F300D11242055334C8C
S11300D0C901992324F488279927821B930BB8011B
S11300E00E942E076F30710530F4109307010093BE
S11300F0060181E0ADC06FE070E080E090E00E9416
S1130100420461E081E00E944C02109307010093D5
S1130110060181E09DC0053F81E0180708F48FC007
S113012084E6809F9001819F300D11242055334C2B
S1130130C901992324F488279927821B930BB801BA
S11301400E942E076F30710530F41093050100935F
S1130150040180E07DC0109305010093040180E058
S113016077C0D1116EC0053F81E0180708F184E61D
S1130170809F9001819F300D11242055334CC9017B
S1130180992324F488279927821B930BB8010E9492
S11301902E076F30710530F41093010100930001B4
S11301A080E056C0109301010093000180E050C02C
S11301B0043F81E0180708F046C084E6809F900160
S11301C0819F300D11242055334CC901992324F407
S11301D088279927821B930BB8010E942E076F3042
S11301E0710530F4109303010093020181E030C0E3
S11301F06FE070E080E090E00E94420460E080E004
S11302000E944C029C0108171907F9F0AC01401B2D
S1130210510B64E6649FC001659F900D1124B901E0
S11302200E942E07CB01B9010E942E07633071058D
S113023070F060E08C2F0E9448008C2F09C08C2F36
S113024007C08C2F05C08C2F03C081E001C081E062
S1130250DF91CF911F910F910895CF92DF92EF928A
S1130260FF920F931F93CF93DF93C82FD62F8091C4
S1130270060190910701892B91F0809104019091DE
S11302800501892B61F08091020190910301892B72
S113029031F08091000190910101892B21F46D2F9F
S11302A08C2F0E9448006D2F8C2F0E944C028C01D1
S11302B0D13009F052C08091060190910701980154
S11302C0281B390BC90122F422273327281B390B99
S11302D044E6429FC001439F900D1124B8010E943F
S11302E02E07FB0180910401909105019801281BC0
S11302F0390BC90122F422273327281B390B44E682
S1130300429FC001439F900D1124B8010E942E0703
S11303106F31710548F4E932F10530F010930701AB
S11303200093060181E08AC081E03F9708F080E0F5
S1130330882369F081E06932710508F480E088233C
S113034031F0109305010093040180E077C061E06F
S11303508C2F0E9448008C2F71C0D1116EC08091E7
S11303600001909101019801281B390BC90122F465
S113037022273327281B390B44E6429FC001439FA1
S1130380900D1124B8010E942E076B018091020187
S1130390909103019801281B390BC90122F42227EB
S11303A03327281B390B44E6429FC001439F900D1D
S11303B01124B8010E942E077B016F31710598F456
S11303C0B60180E090E00E940A062DEC3CEC4CEC77
S11303D05EE30E94BC06181634F4109303010093E4
S11303E0020181E02BC0B60180E090E00E940A0681
S11303F02AE939E949E15EE30E94D6058823BCF481
S1130400B70180E090E00E940A06D1E02DEC3CECBC
S11304104CEC5EE30E94BC0618160CF0D0E0DD2321
S113042031F0109301010093000180E007C060E007
S11304308C2F0E9448008C2F01C08C2FDF91CF910C
S11304401F910F91FF90EF90DF90CF900895CF937D
S1130450DF93EC0160E080E00E944C02BC018C1749
S11304609D07B0F48C1B9D0B9C0122F4222733279B
S1130470281B390B44E6429FC001439F900D112471
S11304800E942E0781E06630710518F480E001C0F7
S113049080E0DF91CF91089506C061E070E080E0D4
S11304A090E00E9442040E94B0030697B0F764E013
S11304B070E080E090E00E9442040E94B00308953E
S11304C04F925F926F927F928F929F92AF92BF9260
S11304D0CF92DF92EF92FF920F93CF93DF936A0153
S11304E07B01D22F682F70E088EE93E00E944207D0
S11304F070E080E090E00E940A062B013C01A70115
S113050096010E94C1060E94DB05862EA701960172
S113051060E070E080E89FE30E946905A301920116
S11305200E94C1060E94DB050023D9F0C0E0912C93
S1130530A12CB12CC62ED12CE12CF12C6D2F81E0F5
S11305400E94DF03C501B4010E9442046D2F80E0C4
S11305500E94DF03C701B6010E944204CF5F0C135F
S1130560EDCFDF91CF910F91FF90EF90DF90CF907F
S1130570BF90AF909F908F907F906F905F904F90BF
S113058008953F924F925F926F927F928F929F92C3
S1130590AF92BF92CF92DF92EF92FF920F931F938D
S11305A0CF93DF9395E0992493940F2EFDECBF2E07
S11305B0F02D0F2EFCECCF2EF02D0F2EFCECDF2EA9
S11305C0F02D1DE3C82FD0E00F2EF4E68F2EF02D72
S11305D0512C412C312C0F2EFFE37F2EF02D0F2EAA
S11305E0F3E06F2EF02D55C0092D21E04B2D5C2D2D
S11305F06D2D712F84E10E9460022DEC3CEC4CE4E3
S11306005EE36B2D7C2D8D2D912F0E946A05B62EF5
S1130610C72ED82E192F61E080E00E944C029E0163
S1130620281B3109C901181619061CF5332324F4B3
S113063022273327281B390B829EC001839E900DED
S11306401124BE010E9442076330710594F02DEC21
S11306503CEC4CE45EE36B2D7C2D8D2D912F0E94A0
S11306606905AB01BC01092D21E084E10E9460020F
S113067015C0A3948A2D90E08E159F050CF4B4CF79
S11306809394B52CC42CD32C172D962D34E09316AB
S113069029F0E92E990FFF08A12CA6CFDF91CF9165
S11306A01F910F91FF90EF90DF90CF90BF90AF908C
S11306B09F908F907F906F905F904F903F900895A0
S11306C00F9301E020E04DEC5CEC6CEC7DE384E105
S11306D00E94600220E04AE959E969E97EE384E185
S11306E00E94600220E040E050E060E07FE384E1AB
S11306F00E94600220E043E353E363E37FE384E189
S11307000E94600220E046E656E666E67FE384E166
S11307100E9460020F9108950F9302E020E040E0F0
S113072050E060E07FE384E10E94600220E043E364
S113073053E363E37FE384E10E94600220E046E642
S113074056E666E67FE384E10E9460020F91089515
S11307503898409AECE7F0E08081807F80830895A8
S1130760EAE7F0E080818068808380818064808310
S11307708081809178002091790090819F77908387
S113078090E0922B0895209A219A089552985A9AAB
S11307900895239A0895E9E6F0E0808181608083DA
S11307A0808182608083E89A08958DB381708DBBC7
S11307B00895882311F02B9A08952B980895811198
S11307C003C0299828980895611102C0289A0895B1
S11307D0299A08951F920F920FB60F9211248F93A6
S11307E081E0809308018F910F900FBE0F901F90AE
S11307F0189582E084BD83E085BD8AEF87BD0895A6
S113080082E08093B00084E08093B1008AEF80930B
S1130810B3000895E0E7F0E0808184608083109263
S11308200E0110920D011092B2000895EEE6F0E070
S113083080818260808310920C010895EEE6F0E0DE
S113084080818D7F80830895E0E7F0E080818B7F55
S113085080830895E0E6F0E0808188618083808170
S1130860866080838081877F80830895E0E6F0E05E
S11308708081806480830895E0E6F0E080818F7B4E
S113088080830895AB01BC0116BC80E090E0DC01DC
S11308900CC0A99906C084179507A607B707C8F323
S11308A008950196A11DB11DA99A481759076A0711
S11308B07B0719F0A99BEDCFF4CF08951F920F92F7
S11308C00FB60F9211240F900FBE0F901F90189522
S11308D01F920F920FB60F9211248F9380910C01E7
S11308E08F5F80930C0180910B01882349F08091E4
S11308F00C01853029F410920C0110920B010DC0EB
S113090080910B01811109C080910C018D3229F471
S113091010920C0181E080930B018F910F900FBE18
S11309200F901F9018951F920F920FB60F921124DB
S11309302F938F939F9380910D0190910E010196B7
S113094090930E0180930D0180910F018F5F80932E
S11309500F0180910D0190910E01843F914041F46B
S113096095B180E1892785B910920E0110920D018D
S113097080910F019F918F912F910F900FBE0F9037
S11309801F901895CF93DF9380910A018130A9F0CD
S113099030F0823009F1833009F458C084C062E039
S11309A082E00E942D01811104C082E080930A013B
S11309B07CC083E080930A0178C00E94600360E0F9
S11309C080E00E942D01811104C082E080930A011D
S11309D06CC00E948C0369C078940E940A0410922F
S11309E0090160E080E00E944C02EC0160E080E0DC
S11309F00E942D01813049F483E080930A01109212
S1130A0009010E941E04F89450C0CE010E942702DE
S1130A10882349F065E070E080E090E00E944204A1
S1130A200E94C10208C080910901882321F00E941C
S1130A30C1020E9424040E94160462E370E080E074
S1130A4090E00E9442040E941E04D0CF81E00E94E4
S1130A50D9030E94CB0361E081E00E942D01811142
S1130A6004C082E080930A0119C0809108018823A0
S1130A7031F01092080181E080930A010FC00E94B6
S1130A80360483B7846083BF83B7816083BF78945F
S1130A90889583B78E7F83BFF894DDCF0E943C0492
S1130AA00E94D50302C010920A01DF91CF910895EC
S1130AB00E94C3030E94C6030E94C9030E94A803A4
S1130AC00E94F9030E9400040E942A040E94C204A6
S1130AD0FDCF5058BB27AA270E9481050C9482069B
S1130AE00E94740638F00E947B0620F039F49F3F80
S1130AF019F426F40C9471060EF4E095E7FB0C94BB
S1130B006B06E92F0E94930658F3BA17620773071E
S1130B108407950720F079F4A6F50C94B5060EF435
S1130B20E0950B2EBA2FA02D0B01B90190010C01F9
S1130B30CA01A0011124FF27591B99F0593F50F411
S1130B40503E68F11A16F040A22F232F342F442769
S1130B50585FF3CF469537952795A795F040539561
S1130B60C9F77EF41F16BA0B620B730B840BBAF031
S1130B709150A1F0FF0FBB1F661F771F881FC2F79C
S1130B800EC0BA0F621F731F841F48F487957795B0
S1130B906795B795F7959E3F08F0B0CF9395880F6A
S1130BA008F09927EE0F9795879508950E944706B8
S1130BB008F481E008950E949B0688F09F5798F0FE
S1130BC0B92F9927B751B0F0E1F0660F771F881F4E
S1130BD0991F1AF0BA95C9F714C0B13091F00E9468
S1130BE0B506B1E008950C94B506672F782F8827D1
S1130BF0B85F39F0B93FCCF3869577956795B3958F
S1130C00D9F73EF490958095709561957F4F8F4FFD
S1130C109F4F0895E89409C097FB3EF49095809502
S1130C20709561957F4F8F4F9F4F9923A9F0F92FAE
S1130C3096E9BB279395F695879577956795B7952C
S1130C40F111F8CFFAF4BB0F11F460FF1BC06F5F12
S1130C507F4F8F4F9F4F16C0882311F096E911C024
S1130C60772321F09EE8872F762F05C0662371F045
S1130C7096E8862F70E060E02AF09A95660F771F59
S1130C80881FDAF7880F9695879597F90895990F35
S1130C900008550FAA0BE0E8FEEF16161706E80742
S1130CA0F907C0F012161306E407F50798F0621B63
S1130CB0730B840B950B39F40A2661F0232B242B38
S1130CC0252B21F408950A2609F4A140A6958FEF57
S1130CD0811D811D089597F99F6780E870E060E0A9
S1130CE008959FEF80EC089500240A9416161706C1
S1130CF018060906089500240A9412161306140609
S1130D0005060895092E0394000C11F4882352F06B
S1130D10BB0F40F4BF2B11F460FF04C06F5F7F4F23
S1130D208F4F9F4F089557FD9058440F551F59F00A
S1130D305F3F71F04795880F97FB991F61F09F3FC4
S1130D4079F087950895121613061406551FF2CFED
S1130D504695F1DF08C0161617061806991FF1CF3D
S1130D6086957105610508940895E894BB27662764
S1130D707727CB0197F908950E94470608F48FEF6F
S1130D8008950E94D4060C9482060E94740638F0DA
S1130D900E947B0620F0952311F00C946B060C94B2
S1130DA0710611240C94B6060E94930670F3959F65
S1130DB0C1F3950F50E0551F629FF001729FBB274E
S1130DC0F00DB11D639FAA27F00DB11DAA1F649FEA
S1130DD06627B00DA11D661F829F2227B00DA11D9D
S1130DE0621F739FB00DA11D621F839FA00D611D23
S1130DF0221F749F3327A00D611D231F849F600D44
S1130E00211D822F762F6A2F11249F5750409AF06C
S1130E10F1F088234AF0EE0FFF1FBB1F661F771FF8
S1130E20881F91505040A9F79E3F510580F00C94C3
S1130E306B060C94B6065F3FE4F3983ED4F38695B4
S1130E4077956795B795F795E7959F5FC1F7FE2B63
S1130E50880F911D9695879597F90895AA1BBB1B3A
S1130E6051E107C0AA1FBB1FA617B70710F0A61BA6
S1130E70B70B881F991F5A95A9F780959095BC01C7
S1130E80CD01089597FB072E16F4009407D077FD43
S1130E9009D00E942E0707FC05D03EF49095819559
S1130EA09F4F0895709561957F4F0895F894FFCFF3
S9030000FC
